:020000008D2849
:0C00060083120313071087100711080075
:08001200032007140B2808006D
:04001A006400080076
:0C001E0083120313061C1428092008009C
:02002A000800CC
:10002C0083120313A2010330220203183F28071482
:10003C00871407150630FB001330FC00AD30FD00B3
:10004C00FD0B2628FC0B2628FB0B262800000000A5
:10005C0003200630FB001330FC00AD30FD00FD0B1F
:10006C003528FC0B3528FB0B352800000000A20AB4
:10007C0019280D30FB00AF30FC00B630FD00FD0B35
:0E008C004528FC0B4528FB0B4528000008000A
:10009A00032007143330FB00BB30FC00DF30FD00C7
:1000AA00FD0B5528FC0B5528FB0B552800000000BA
:1000BA000F200D20032087143330FB00BB30FC00D7
:1000CA00DF30FD00FD0B6728FC0B6728FB0B672858
:1000DA00000000000F20032007153330FB00BB305F
:1000EA00FC00DF30FD00FD0B7828FC0B7828FB0BA9
:0C00FA007828000000000F200D200800F6
:10010600F8308316031387000130860083128701B7
:040116008601080056
:0E011A008320152016200D204D2091289328BB
:02400E004A2F37
:00000001FF
