:0200000048288E
:04000600640008008A
:0C000A0083120313071087100711080071
:020016000800E0
:10001800F8308316031387000130860083128701A6
:040028008601080045
:10002C00052007143330FB00BB30FC00DF30FD0033
:10003C00FD0B1E28FC0B1E28FB0B1E2800000000CD
:10004C000320052087140830FB009D30FC00053090
:10005C00FD00FD0B2F28FC0B2F28FB0B2F2800007D
:10006C000000052007152730FB000D30FC00263062
:10007C00FD00FD0B3F28FC0B3F28FB0B3F2800002D
:04008C000320080045
:100090000C200B200714871407150D30FB00AF3020
:1000A000FC00B630FD00FD0B5328FC0B5328FB0B66
:1000B0005328000005200D30FB00AF30FC00B630A7
:1000C000FD00FD0B6128FC0B6128FB0B6128000083
:0800D0000320162069286B28AB
:02400E004A2F37
:00000001FF
