:0200000087284F
:0C00060083120313071087100711080075
:08001200032007140B2808006D
:0C001A0083120313061C122809200800A2
:020026000800D0
:1000280083120313A2010330220203183D28071488
:10003800871407150630FB001330FC00AD30FD00B7
:10004800FD0B2428FC0B2428FB0B242800000000AF
:1000580003200630FB001330FC00AD30FD00FD0B23
:100068003328FC0B3328FB0B332800000000A20ABE
:1000780017280D30FB00AF30FC00B630FD00FD0B3B
:0E0088004328FC0B4328FB0B43280000080014
:10009600032007143330FB00BB30FC00DF30FD00CB
:1000A600FD0B5328FC0B5328FB0B532800000000C4
:1000B6000D20032087142730FB000D30FC0026306E
:1000C600FD00FD0B6428FC0B6428FB0B6428000074
:1000D6000D20032007152730FB000D30FC002630CD
:1000E600FD00FD0B7428FC0B7428FB0B7428000024
:0400F6000D200800D1
:1000FA00F8308316031387000130860083128701C4
:04010A008601080062
:0C010E007D20132014204B208A288C2810
:02400E004A2F37
:00000001FF
